:0400000080312528FE
:100008007E1480314E01161E0A280B2813280C1E58
:100018000E280F28132880319220803123280B1FA7
:10002800162817282328171F1A281B2823280D1FCE
:100038001E281F28232880316420803123287E1021
:100048000900803127287E10400180317228013054
:10005800450190008F01910119308D008C014E01EE
:100068000D1317179130F2000030F300803189200A
:100078008031803045018E000800400198012F3002
:10008800920027307E01B800B901BA013730BB00B1
:100098003F30BC004E01161603307E019400080064
:1000A80080314120803180318320803180318E2021
:1000B800803180317B20803180312B2080310800D5
:1000C8004E010D137008710403196B286C287128F0
:1000D80071088A0070080A008031080080315420B5
:1000E800803180317B20803178288031252880300C
:1000F800460196000C309500C0309400080051016C
:10010800910103309300920108007308F10072080E
:0E011800F000080050018C01080008000800EB
:020000040001F9
:08000000FF3FFF3FFF3FFF3F00
:0A000E00CD3FE73FFF3FFF3FFF3FFC
:00000001FF
